:1000000012C02CC02BC02AC029C028C027C026C0BF
:1000100025C024C023C022C021C020C01FC01EC0D4
:100020001DC01CC01BC011241FBECFE5D4E0DEBF25
:10003000CDBF11E0A0E6B0E0E0EAF0E002C005903C
:100040000D92A036B107D9F721E0A0E6B1E001C0DA
:100050001D92A136B207E1F702D020C0D1CFB99AE4
:1000600080E890E09BBD8ABD8FB580688FBD8FB55D
:1000700083608FBD8EB582608EBD10926001E0916D
:100080006001F0E0E05AFF4F808190E09BBD8ABDA7
:10009000809160018F5F80936001F1CFF894FFCF72
:1000A0007F8285888B8F9295989B9EA1A4A7AAADED
:1000B000B0B2B5B8BBBDC0C3C5C8CBCDCFD2D4D606
:1000C000D9DBDDDFE1E3E5E7E8EAECEDEFF0F2F3C1
:1000D000F4F5F6F8F8F9FAFBFBFCFDFDFDFEFEFE7B
:1000E000FEFEFEFEFDFDFDFCFCFBFAFAF9F8F7F65C
:1000F000F5F3F2F1EFEEECEBE9E7E5E3E1E0DDDB70
:10010000D9D7D5D2D0CECBC9C6C3C1BEBBB9B6B381
:10011000B0ADAAA7A4A19E9B9895928F8C89868347
:10012000807D797673706D6A6764615E5B58555245
:100130004F4C494744413E3C393734322F2D2A2811
:100140002624221F1D1B1A18161413110F0E0D0B37
:100150000A09080706050403030202010100000062
:100160000000000001010102020304040506070863
:10017000090A0C0D0E1011131516181A1C1E202238
:100180002427292B2D303235373A3D3F4245484A06
:100190004D505356595C5F6265686B6E7174777A27
:00000001FF
